:020000040000FA
:1000000030220020750300007D0300007F03000004
:10001000810300008303000085030000000000004E
:100020000000000000000000000000008703000046
:1000300089030000000000008B030000E54D000074
:100040008F0300009103000093030000950300005C
:1000500097030000255A0000CD5A00009D030000C0
:100060009F030000A1030000A3030000A5030000FC
:10007000A7030000A9030000AB030000AD030000CC
:10008000AF030000B1030000B3030000B50300009C
:10009000B7030000B9030000BB030000BD0300006C
:1000A000BF030000C1030000C3030000C50300003C
:1000B000C7030000C9030000CB030000CD0300000C
:1000C000CF0300007D5B00003D460000D50300002B
:1000D000D7030000D9030000DB030000DD030000AC
:1000E000DF030000E103000000000000E303000064
:1000F000E5030000E7030000E9030000EB03000054
:10010000ED030000EF030000F1030000F303000023
:100110000000000000000000F5030000F7030000ED
:10012000F9030000FB030000FD030000FF030000D3
:10013000010400000304000005040000070400009F
:1001400000000000000000000000000000000000AF
:10015000090400000B0400000D0400000F0400005F
:10016000000000000000000000000000000000008F
:10017000000000000000000000000000000000007F
:10018000000000000000000000000000000000006F
:10019000000000000000000000000000000000005F
:1001A000000000000000000000000000000000004F
:1001B00011040000130400001504000017040000DF
:1001C000190400001B0400001D0400001F040000AF
:1001D000210400002304000025040000270400007F
:1001E000290400002B0400002D0400000000000082
:1001F000000000002F040000310400003304000060
:10020000350400003704000000000000000000007A
:10021000390400003B0400003D0400003F040000DE
:1002200041040000430400004504000047040000AE
:10023000490400004B0400004D0400004F0400007E
:10024000510400005304000055040000570400004E
:10025000590400005B0400005D0400005F0400001E
:1002600061040000630400006504000000F002F86F
:1002700000F05CF80AA090E8000C82448344AAF1E4
:100280000107DA4501D100F051F8AFF2090EBAE8E2
:100290000F0013F0010F18BFFB1A43F001031847BA
:1002A00004B7000024B700000A444FF0000C10F817
:1002B000013B13F0070408BF10F8014B1D1108BFE4
:1002C00010F8015B641E05D010F8016B641E01F884
:1002D000016BF9D113F0080F1EBF10F8014BAD1CD4
:1002E0000C1B09D16D1E58BF01F801CBFAD505E0F2
:1002F00014F8016B01F8016B6D1EF9D59142D6D34C
:10030000704700000023002400250026103A28BF73
:1003100078C1FBD8520728BF30C148BF0B60704777
:100320001FB50AF08EFE1FBD10B510BD00F01CF900
:100330001146FFF7F5FF08F057FB00F03AF903B458
:10034000FFF7F2FF03BC00F03DF90000EFF310806F
:1003500072B67047EFF310807047EFF3108062B60B
:10036000704730BF704780F311887047EFF31180FA
:10037000704700003F4880473F480047FEE7FEE7E0
:10038000FEE7FEE7FEE7FEE7FEE7FEE7FEE7FEE745
:10039000FEE7FEE7FEE7FEE7FEE7FEE7FEE7FEE735
:1003A000FEE7FEE7FEE7FEE7FEE7FEE7FEE7FEE725
:1003B000FEE7FEE7FEE7FEE7FEE7FEE7FEE7FEE715
:1003C000FEE7FEE7FEE7FEE7FEE7FEE7FEE7FEE705
:1003D000FEE7FEE7FEE7FEE7FEE7FEE7FEE7FEE7F5
:1003E000FEE7FEE7FEE7FEE7FEE7FEE7FEE7FEE7E5
:1003F000FEE7FEE7FEE7FEE7FEE7FEE7FEE7FEE7D5
:10040000FEE7FEE7FEE7FEE7FEE7FEE7FEE7FEE7C4
:10041000FEE7FEE7FEE7FEE7FEE7FEE7FEE7FEE7B4
:10042000FEE7FEE7FEE7FEE7FEE7FEE7FEE7FEE7A4
:10043000FEE7FEE7FEE7FEE7FEE7FEE7FEE7FEE794
:10044000FEE7FEE7FEE7FEE7FEE7FEE7FEE7FEE784
:10045000FEE7FEE7FEE7FEE7FEE7FEE7FEE7FEE774
:10046000FEE7FEE7FEE7000004480549034A054BA6
:1004700070470000915100006D0200003020002004
:10048000302200203020002010B5203AC0F00B8030
:10049000B1E81850203AA0E81850B1E81850A0E888
:1004A0001850BFF4F5AF5FEA027C24BFB1E81850E2
:1004B000A0E8185044BF18C918C0BDE810405FEA52
:1004C000827C24BF51F8043B40F8043B08BF7047CE
:1004D000D20728BF31F8023B48BF11F8012B28BFD3
:1004E00020F8023B48BF00F8012B70474FF0000294
:1004F00000B5134694469646203922BFA0E80C501A
:10050000A0E80C50B1F12001BFF4F7AF090728BFF4
:10051000A0E80C5048BF0CC05DF804EB890028BF70
:1005200040F8042B08BF704748BF20F8022B11F099
:10053000804F18BF00F8012B704770477047704715
:1005400010B500F009F8006810BD10B5044600F0C1
:1005500003F8046010BD000000487047D01F002061
:1005600000487047D01F00207546FFF7F9FFAE46E0
:1005700005006946534620F00700854618B020B5AF
:10058000FFF772FFBDE820404FF000064FF0000774
:100590004FF000084FF0000B21F00701AC46ACE82B
:1005A000C009ACE8C009ACE8C009ACE8C0098D4698
:1005B000704710B50446AFF300802046BDE81040F8
:1005C000FFF7BDBE01491820ABBEFEE726000200C2
:1005D0007047012202FA01F1C160704732B1C06870
:1005E0004FF0011202FA01F1084070474068012201
:1005F0008A4042F48032104010F4803F08BF7047B8
:1006000040F470204FF4803202FA01F188437047C1
:100610000A4601F00F0101236FF30F0203FA01F103
:100620001143826A11438162704700EB411000F16F
:100630004001002003E08B6842F8043B401CCB687B
:1006400013F4807F18BF70470828F4D3704710B5A3
:1006500007F096FA10BD000010B52DED108B8AB092
:10066000044600EE104AB8EEC00AB0EE408AFE48DA
:1006700090ED0F0AB4EEC80AF1EE10FA7ED290EDBA
:10068000100AB4EEC80AF1EE10FA77DB90ED040A16
:1006900010EE101A08460AF063FCCDE90601F24894
:1006A00090ED030A20EE080A10EE101A08460AF030
:1006B00057FCCDE9020118EE100A0AF051FC41EC9A
:1006C0001C0B9FEDEA1BB0EE4C0AF0EE6C0A06F034
:1006D0005FFBB0EE40AAF0EE60AAE34890ED020A9C
:1006E00010EE101A08460AF03BFC41EC1B0B53ECD1
:1006F0001A2B0AF03FF941EC190B18EE100A0AF018
:100700002FFC41EC1E0B9FEDDB1BB0EE4E0AF0EE12
:100710006E0A06F03DFBB0EE40CAF0EE60CAD24869
:1007200090ED010A10EE101A08460AF019FC41EC8F
:100730001D0B53EC1C2B0AF01DF941EC1A0B18EEA3
:10074000100A0AF00DFC41EC1E0B9FEDCC1BB0EE25
:100750004E0AF0EE6E0A06F01BFBB0EE40CAF0EE59
:1007600060CAC14890ED000A10EE101A08460AF05F
:10077000F7FB41EC1D0B53EC1C2B00E030E00AF0C2
:10078000F9F841EC1B0B53EC1A2B09F079FE53ECF2
:10079000192BCDE900019DED000B51EC100B09F078
:1007A0006FFE41EC1F0B9DED020B53EC102B09F07B
:1007B00067FECDE904019DED060B53EC102B9DED7A
:1007C000040B51EC100B09F05BFECDE908019DED27
:1007D000080B51EC100B09F021FE08EE900A5EE1C7
:1007E000A14890ED100AB4EEC80AF1EE10FA7CD2DE
:1007F00090ED110AB4EEC80AF1EE10FA7DDB90ED2F
:10080000080A10EE101A08460AF0AAFB41EC1A0B6F
:10081000954890ED070A20EE080A10EE101A0846D7
:100820000AF09EFB41EC1F0B18EE100A0AF098FB31
:1008300041EC1E0B9FED8D1BB0EE4E0AF0EE6E0AE2
:1008400006F0A6FAB0EE40CAF0EE60CA864890ED17
:10085000060A10EE101A08460AF082FB41EC1D0B46
:1008600053EC1C2B0AF086F841EC1B0B18EE100A17
:100870000AF076FB41EC1E0B9FED7E1BB0EE4E0A9C
:10088000F0EE6E0A06F084FAB0EE40CAF0EE60CAEE
:10089000754890ED050A10EE101A08460AF060FB44
:1008A00041EC1D0B53EC1C2B0AF064F853EC1B2B92
:1008B000CDE904019DED040B51EC100B09F0E0FDB6
:1008C00053EC1F2BCDE906019DED060B51EC100BEF
:1008D00009F0D6FD53EC1A2BCDE908019DED080B6C
:1008E00051EC100B09F0CCFD00E006E041EC190BD7
:1008F00009F094FD08EE900AD1E05B4890ED110AF2
:10090000B4EEC80AF1EE10FA52D290ED120AB4EE2B
:10091000C80AF1EE10FA4BDB90ED0B0A10EE101A3C
:1009200008460AF01DFB41EC1A0B4F4890ED0A0AED
:1009300020EE080A10EE101A08460AF011FB41ECEE
:100940001C0B18EE100A0AF00BFB41EC1F0B9FED7D
:10095000471BB0EE4F0AF0EE6F0A06F019FAB0EE40
:1009600040EAF0EE60EA404890ED090A10EE101AF5
:1009700008460AF0F5FA53EC1E2BCDE908019DED6F
:10098000080B51EC100B09F0F5FF41EC1D0B53EC7B
:100990001C2B09F075FD41EC1B0B53EC1A2B09F0D5
:1009A0006FFD41EC190B09F039FD08EE900A76E075
:1009B0002D4890ED120AB4EEC80AF1EE10FA61D299
:1009C00090ED130AB4EEC80AF1EE10FA5ADB90ED7E
:1009D0000E0A10EE101A08460AF0C2FA41EC1A0B81
:1009E000214890ED0D0A20EE080A10EE101A084674
:1009F0000AF0B6FA41EC1C0B18EE100A0AF0B0FA35
:100A000041EC1F0B9FED191BB0EE4F0AF0EE6F0A81
:100A100006F0BEF9B0EE40EAF0EE60EA124890ED62
:100A20000C0A10EE101A08460AF09AFA53EC1E2B24
:100A3000CDE908019DED080B51EC100B09F09AFF70
:100A400041EC1D0B53EC1C2B09F01AFD41EC1B0B68
:100A500053EC1A2B09F014FD41EC190B09F0DEFCE4
:100A600008EE900A1BE00DE0BC0D00200000000025
:100A700000000040000000000000084000000000EE
:100A800000001040094890ED130AB4EEC80AF1EED8
:100A900010FA02D8DFED068A01E0DFED068AB0EE3B
:100AA000680A0AB0BDEC108B10BD0000BC0D002020
:100AB0000050C3460000000010B51C48007838B94B
:100AC00000201B49C8631B490860012017490870B2
:100AD0001848006841F28831884223D81022114614
:100AE000154801F0AEF8154890ED070ADFED140A3D
:100AF000B4EEE00AF1EE10FA03DB01200C49886342
:100B000013E00B48806B80B90C4890ED070ADFEDCD
:100B10000C0AB4EEE00AF1EE10FA06D20020044905
:100B2000886302E001200249C86310BD370200203B
:100B3000F41300206C020020006000400812002026
:100B400000007A430A48007838B900200949C86390
:100B5000094908600120064908700748006841F209
:100B60008831884202D301200249C86370470000DF
:100B700037020020F41300206C02002010200E49E0
:100B800008600E48C860002048600881086148611C
:100B9000002109488161C1611220094908600748A4
:100BA000C86000204860088108614861002104484D
:100BB0008161C16170470000C8110020003002400F
:100BC000E81100202DE9F04104460E4617461D4667
:100BD00067602581402D18D0012E04D0022E04D04C
:100BE000032E0AD105E0656108E045F0010060616F
:100BF00004E045F00F00606100E000BF00BF6068E6
:100C0000010AA1612179E16102E00320BDE8F081E0
:100C100021780022E06801F063F86269D1B2E068EF
:100C200001F050F80321E06801F04AF800BF4FF0EE
:100C30008072E068D269116C88470028F7D14FF0C4
:100C40008072E068D269D16C88472061A269D1B214
:100C5000E06801F037F80121E06801F031F800BFE9
:100C60004FF08072E068D269116C88470028F7D194
:100C70004FF08072E068D269D16C88472061E269E8
:100C8000D1B2E06801F01EF80521E06801F018F823
:100C900000BF4FF08072E068D269116C884700286D
:100CA000F7D14FF08072E068D269D16C884720613B
:100CB0000020ABE710B54FF08070406C81699A4816
:100CC000884700BF4FF08070406CD0F88C10964879
:100CD00088470028F6D04FF08070406C81699248B8
:100CE0000830884700BF4FF08070406CD0F88C10FF
:100CF0008D48083088470028F5D04FF08070406C50
:100D000081698948401D884700BF4FF08070406C62
:100D1000D0F88C108448401D88470028F5D04FF04B
:100D20008070406C81698048801C884700BF4FF00C
:100D30008070406CD0F88C107B48801C884700285D
:100D4000F5D04FF08070406C81697748C01D8847AE
:100D500000BF4FF08070406CD0F88C107248C01DFE
:100D600088470028F5D04FF08070406C81696E484C
:100D70000930884700BF4FF08070406CD0F88C106D
:100D80006948093088470028F5D04FF08070006A24
:100D9000002208214368654898474FF08070006A38
:100DA0000C230122082144696048A047604861493A
:100DB00008600120091D08600006006A00223C212D
:100DC00043685D4898474FF08070006A0C23012209
:100DD0003C2144695848A0474FF08070006A0022C7
:100DE00004214368554898474FF08070006A0C23EF
:100DF0000122042144695148A0474FF08070006AE5
:100E00003721C26B494890474FF08070006A0C232D
:100E10006622372144694548A0474FF08070006A38
:100E2000002237210368414898474FF08070006ADC
:100E30000321C26B404890474FF08070006A0C233A
:100E40006622032144693C48A0474FF08070006A45
:100E5000002203210368384898474FF08070006AE9
:100E60003021C26B364890474FF08070006A0122F3
:100E700030214368324898474FF08070006A0C2355
:100E80006622302144692E48A0474FF08070006AE6
:100E90000022302103682A4898474FF08070006A8A
:100EA0000321C26B254890474FF08070006A0022F2
:100EB00003210368214898474FF08070006A0F2192
:100EC000C26B204890474FF08070006A00220F21CB
:100ED00003681C4898474FF08070006A2021C26B5D
:100EE0004FF0402090474FF08070006A0A2366223E
:100EF000202144694FF04020A0474FF08070006AE5
:100F00000022202103684FF0402098470A2000F07B
:100F10001BF84FF08070006A2022114603684FF0E2
:100F20004020984710BD0000000800F0007002400B
:100F30004B434F4C205502400050024000D003402C
:100F40000060004000100640064908600121064A82
:100F5000117000BF034909680029FBD1024A1170D2
:100F6000704700002C0200202802002010B52DED53
:100F7000108B002404217C4804F07AFF04F072FCFA
:100F800000286ED004F06EFC08286BDB00BF04F074
:100F90001BFF2146641C754A505404F063FC002872
:100FA000F5DC7248007801285CD170484078102840
:100FB000FAD16E4880780428F6D107216B4807F0F3
:100FC00056FA6B4908706948C0796A490870084642
:100FD0000078674909788842E6D16448C078664954
:100FE000086062480079096841EA002062490860A7
:100FF0005E484079096841EA00405F4908605B4803
:101000008079096841EA00605B490860084690ED14
:10101000000AB8EEC00A594880ED000A90ED000AB7
:10102000DFED570A80EE201A80ED001A90ED000ADD
:10103000544801680068401C524A1060524800EB56
:10104000810080ED000A9FED510A514880ED000AB1
:1010500010460068052802D30020114608600020D1
:101060000EE070E074E0484901EB800191ED000A68
:101070004749D1ED000A30EE200A81ED000A401CFC
:101080000528F0DB424890ED000AF1EE040A80EEFC
:10109000201A404880ED001A3F4890ED520A10EEA9
:1010A000101A084609F05CFF41EC190B3A4890ED24
:1010B000510A3848D0ED000A20EE200A10EE101A2E
:1010C000084609F04DFF41EC1B0B3248006809F05F
:1010D00047FF41EC1F0B9FED311BB0EE4F0AF0EEC6
:1010E0006F0A05F055FEB0EE40DAF0EE60DA2A48FD
:1010F00090ED500A10EE101A084609F031FF41EC4D
:101100001E0B53EC1D2B09F035FC41EC1C0B53EC72
:101110001B2B09F0B5F941EC1A0B53EC192B09F014
:10112000AFF941EC180B09F079F91A490860084643
:1011300090ED000A1B4880ED030A00201A49088040
:101140001A49C86204E018480088401C1649088003
:1011500015480088142801DD012000E00020134913
:10116000C862BDEC108B10BD46B100001104002018
:10117000190400201A0400200404002008040020A0
:1011800000007A44000300206816002000000000E0
:10119000A40400200C040020BC0D0020000000006E
:1011A0000000004008120020A8040020F4130020D2
:1011B00010B53648D0ED040A354890ED000AB8EE77
:1011C000400AF4EEC00AF1EE10FA5ED80020314970
:1011D00008600120304908703049C866304890EDF9
:1011E000220ADFED300A60EE200A2F4890ED000A57
:1011F000B8EE400AF4EEC00AF1EE10FA13DD302327
:10120000002201212948FFF7DDFC302300220221C2
:101210002648FFF7D7FC302343F6982201212448C3
:10122000FFF7D0FC31E000201B4908701E49086020
:101230003023002201211D48FFF7C4FCB7EE000A4D
:101240001C4880ED010A002012490860104908601E
:101250001949086019490860194908601949086066
:1012600019490860194908600C490866184908605E
:1012700018490860184908609FED180A084880ED71
:10128000220A9FED160A80ED210A10BD941300205A
:10129000F4020020D802002070020020F413002085
:1012A0005812002000007A4474020020C811002067
:1012B000E8110020C4130020D8030020DC03002024
:1012C0008C03002088030020C8030020C4030020F2
:1012D000D4030020D0030020CC0300200000000035
:1012E00010B50A480A490860002048600872487230
:1012F000C86007F0E5F8B7EE000A064880ED000A7E
:10130000B1EE040A80ED010A10BD000000000C409F
:101310007C1100205812002010B50446484890ED7A
:10132000010AF7EE000AB4EE600AF1EE10FA08D0F6
:1013300090ED010AF2EE040AB4EE600AF1EE10FA42
:1013400002D107F009FA79E03D4890ED010AF0EE8C
:10135000000AB4EE600AF1EE10FA02D102F0A4F82D
:101360006CE0374890ED010AF0EE080AB4EE600A2E
:10137000F1EE10FA02D102F097F85FE0304890EDFC
:10138000010AF1EE000AB4EE600AF1EE10FA31D172
:101390002C48007801281FD12B48006801281BD158
:1013A0002A490870264890ED170AF7EE000AB4EEB5
:1013B000600AF1EE10FA02D107F0CEF93EE02048C3
:1013C00090ED170AF0EE000AB4EE600AF1EE10FAA2
:1013D00034D102F069F831E01D48007801282DD1A0
:1013E00019480068012829D102201849087002F024
:1013F0005BF823E0124890ED010AF1EE040AB4EE26
:10140000600AF1EE10FA0DD112480078022802DAD3
:1014100007F0A2F912E00F48007802280EDB02F074
:1014200043F80BE0064890ED010AF1EE0C0AB4EE29
:10143000600AF1EE10FA01D102F036F810BD00009A
:10144000E4120020D4040020D4020020A3000020D5
:10145000D50400207414002010B51A481A490860F9
:101460000020486088600873002117484173817329
:1014700016481749086000204860886008730021FA
:101480001348417381731348134908600020486072
:101490008860087300211048417381733023002253
:1014A00001210E48FFF78EFB3023002202210B485A
:1014B000FFF788FB3023002201210948FFF782FB58
:1014C00010BD0000000002408C11002000200240EE
:1014D000A011002000100240B4110020C81100200B
:1014E000E811002010B52DED108B0024C749C84825
:1014F00008F052FA00287DD1C44890ED000AF7EEBA
:10150000000AB4EE600AF1EE10FA74D00020C1496E
:101510000860C1494860C1490860BC4890ED000AB4
:10152000BF4801680068401CBD4A1060BD4800EB20
:10153000810080ED000A9FEDBC0ABC4880ED000AE6
:10154000104600680A2802D30020114608600024D3
:101550000CE0B44800EB840090ED000AB348D0EDF5
:10156000000A30EE200A80ED000A641C0A2CF0D339
:10157000AE4890ED000AF2EE040A80EE201AAC4864
:1015800080ED011AAB4890ED340A10EE101A0846AF
:1015900009F0E6FC41EC190BA64890ED330AA4488B
:1015A000D0ED010A20EE200A10EE101A084609F0CC
:1015B000D7FC41EC1B0B9E4890ED010A10EE101A6F
:1015C000084609F0CDFC41EC1F0B9FED9B1BB0EED4
:1015D0004F0AF0EE6F0A05F0DBFBB0EE40DAF0EEFA
:1015E00060DA944890ED320A10EE101A084609F0BD
:1015F000B7FC01E01FE018E041EC1E0B53EC1D2B83
:1016000009F0B8F941EC1C0B53EC1B2B08F038FF28
:1016100041EC1A0B53EC192B08F032FF41EC180B7C
:1016200008F0FCFE824948600AE07C480068401CE3
:101630007A49086004E079480068401C77490860EE
:1016400076480068282804D301207249086072494E
:1016500048606E497A4808F09FF9002858D16B48D5
:1016600090ED000AF7EE000AB4EE600AF1EE10FA0F
:1016700048D00020734908607349086066490860D3
:10168000624890ED000A714801680068401C6F4A8A
:1016900010606F4800EB810080ED000A9FED620A48
:1016A000624880ED000A104600680A2802D3002034
:1016B0001146086000240CE0654800EB840090EDC2
:1016C000000A5A48D0ED000A30EE200A80ED000AE8
:1016D000641C0A2CF0D3554890ED000AF2EE040A7F
:1016E00080EE201A524880ED001A524890ED3D0AD3
:1016F000D0ED3C0A4E4890ED001A00EE810A80EDD4
:10170000000A0AE04F480068401C4E49086004E0A7
:101710004C480068401C4B4908604A48006828282B
:1017200004D30120484908603B49086037494948CB
:1017300008F032F9002858D1344890ED000AF7EE4D
:10174000000AB4EE600AF1EE10FA48D000204249D7
:10175000086042490860304988602C4890ED000AD2
:101760003F4801680068401C3D4A10603D4800EB5E
:10177000810080ED000A9FED2C0A2C4880ED000AC4
:10178000104600680A2802D3002011460860002491
:101790000CE0344800EB840090ED000A2348D0EDC3
:1017A000000A30EE200A80ED000A641C0A2CF0D3F7
:1017B0001E4890ED000AF2EE040A80EE201A1C4842
:1017C00080ED021A1B4890ED470AD0ED460A1848F2
:1017D00090ED021A00EE810A80ED020A0AE01E482E
:1017E0000068401C1C49086004E01B480068401C5D
:1017F0001949086018480068282804D301201749AF
:10180000086005498860BDEC108B10BD24020020E3
:101810008C11002030030020F41300203803002036
:1018200008030020B816002000000000100300206C
:1018300008120020BC0D0020000000000000004045
:10184000A01100203C0300202C03002004030020F2
:1018500090160020B4110020400300203403002023
:101860000C030020E016002010B5B1EE0A0A3E4835
:1018700080ED000A90ED000ABDEEC00A10EE100ADD
:10188000FEF7EAFE394880ED000A302390ED000AA9
:10189000BCEEC00A10EE102A01213548FFF792F97C
:1018A000344890ED000AF1EE040A60EE200A324856
:1018B00090ED000AB8EE400AF4EEC00AF1EE10FA1C
:1018C00051D8012211462D4800F0BBF92C4890ED6B
:1018D000020A2C48D0ED000A30EE600A2A4880ED5A
:1018E000020A90ED020A2948D0ED0D0AB4EEE00A92
:1018F000F1EE10FA37DB3023002201211C48FFF7FC
:1019000061F9B7EE000A204880ED010A0020204965
:1019100008602049086020490860174908601F498D
:1019200008601F4908601F4908601F4908601F4977
:1019300008661F4908601F4908601F4908609FED3D
:101940001F0A1F4880ED000A104890ED010AF1EED1
:10195000040AB4EE600AF1EE10FA04D119480078D6
:10196000401C1849087010BD140000201800002009
:10197000C8110020FC030020DC03002000500240BE
:10198000081200200C040020C4130020E4120020E0
:10199000D8020020F4020020D80300208C0300208D
:1019A00088030020C8030020C4030020F413002093
:1019B000D4030020D0030020CC030020000000004E
:1019C000240000207414002010B51948007838B99C
:1019D00000201849C863184908600120144908709C
:1019E0001548006841F2883188421CD8B1EE040ADB
:1019F000124880ED070AB1EE040A80ED060A9FED59
:101A0000100A104880ED000A06F0A6FE30230D48AB
:101A100090ED000ABCEEC00A10EE102A01210A481F
:101A2000FFF7D0F802E001200249C86310BD0000B2
:101A300037020020F41300206C02002094130020D1
:101A40000000000000040020E81100200021002018
:101A500000BF03E00022064B1A54401C054A1268DE
:101A60009042F7D30022044B1A60024B1A60704771
:101A70001C1D00203C04002040040020D0F800344D
:101A800012F0010F14BF0B438B43C0F8003412F067
:101A9000020FD0F8202414BF114322EA0101C0F83C
:101AA000201470472DE9F00301264FF0000C0325A8
:101AB000C2F3411706FA0CF40C4211D0D0F8C48FCF
:101AC0004FEA4C0405FA04F928EA0908C0F8C48F63
:101AD000D0F8C48F07FA04F448EA0404C0F8C44FED
:101AE0000CF1010C0CF0FF0CBCF1080FE2D3D0F8A4
:101AF00000C512F0010F14BF4CEA010C2CEA010CD6
:101B0000C0F800C5D0F804C512F0020F14BF4CEAAB
:101B1000010C2CEA010CC0F804C5D0F808C512F07D
:101B2000040F14BF4CEA010C2CEA010CC0F808C5E4
:101B3000D0F818C512F0080F14BF4CEA010C2CEABB
:101B4000010CC0F818C512F0100FD0F83C2514BFD6
:101B50000A438A43C0F83C25D0F80C2513F0010F46
:101B600014BF0A438A43C0F80C25D0F8102513F09F
:101B7000020F14BF0A438A43C0F81025D0F8142579
:101B800013F0040F14BF0A438A43C0F81425D0F899
:101B90001C2513F0080F14BF0A438A43C0F81C2504
:101BA000D0F8442513F4007F14BF0A438A43C0F8D9
:101BB0004425D0F8402513F4407F14BF0A438A43DC
:101BC000C0F84025D0F82825002B0CBF114322EA8D
:101BD0000101C0F82815BDE8F00370470E4AC0F3B4
:101BE0000741D26E01238B401A420C4A1ABF02EB06
:101BF000C101496852F83110020AD1F82C354FF072
:101C00000F0C0CFA02FC00F00F0023EA0C039040CA
:101C10001843C1F82C05704700E00F40A0B5000044
:101C200050F82100704730B50C4605460222FFF7F8
:101C300025FF21462846BDE8304008230122FFF752
:101C400031BF40F8212070470A48007838B9002099
:101C50000949C86309490860012006490870074816
:101C6000006841F28831884202D301200249C863EA
:101C70007047000037020020F41300206C0200209F
:101C800030B503460C46154621681A68914201D3C7
:101C9000881A30BD501A281AFBE730B503460C46A7
:101CA000154621681A68914201D3881A30BD501A2E
:101CB000281AFBE7406810F0010018BF01207047A8
:101CC0004160704781607047406810F0010F05D196
:101CD00010F0120F1CBF00F01C007047002070476E
:101CE00042EA41010160704710B54FF08070406CCE
:101CF0008169A348884700BFA14803F045F8002840
:101D0000FAD04FF08070406C81699E48884700BFD0
:101D10009C4803F039F80028FAD04FF08070006A30
:101D2000816E994888474FF08070006A0421D0F88E
:101D30009C20964890474FF08070006A816E9448CE
:101D400088474FF08070006A0821026C8F489047E6
:101D500002F046FF04464FF08070C0690022214621
:101D600043688C4898474FF08070406C8169844884
:101D7000401C884700BF8248401C03F005F800283B
:101D8000F9D04FF08070406C81697E48401E8847D2
:101D900000BF7C48401E02F0F7FF0028F9D04FF04A
:101DA0008070006A816E41F6030088474FF08070B2
:101DB000006A4021D0F89C204FF0402090474FF01F
:101DC0008070006A816E41F6034088474FF0807052
:101DD000006A8021026C4FF04020904702F000FF23
:101DE00004464FF08070C0690022214643686A486B
:101DF00098474FF08070406C81696148801C88472B
:101E000000BF5F48801C02F0BFFF0028F9D04FF0F0
:101E10008070406C81695B48001D884700BF59484D
:101E2000001D02F0B1FF0028F9D04FF08070006A69
:101E3000816E5A4888474FF08070006A4021D0F880
:101E40009C20574890474FF08070006A816E55483B
:101E500088474FF08070006A8021026C504890479C
:101E600002F0BEFE04464FF08070C0690022214699
:101E700043684D4898474FF08070406C81694048F6
:101E8000C01C884700BF3E48C01C02F07DFF0028F0
:101E9000F9D04FF08070406C81693A48401D884706
:101EA00000BF3848401D02F06FFF0028F9D04FF006
:101EB0008070006A816E3D4888474FF08070006AEC
:101EC0000121D0F89C203A4890474FF08070006A7A
:101ED000816E384888474FF08070006A0221026C9A
:101EE0003348904702F07CFE04464FF08070C06992
:101EF000012221464368304898474FF08070406C7B
:101F000081691F48001D884700BF1D48001D02F061
:101F10003BFF0028F9D04FF08070406C8169194870
:101F2000401D884700BF1748401D02F02DFF0028C4
:101F3000F9D04FF08070006A816E204888474FF0DA
:101F40008070006A0421D0F89C20194890474FF017
:101F50008070006A816E1A4888474FF08070006A6E
:101F60000821026C1248904702F03AFE04464FF0F6
:101F70008070C0690122214643681248984710BD0D
:101F8000002000F0010800F00308010000500040AC
:101F9000030C01000000024000100240031805007D
:101FA00000500240031C0500002002400300060010
:101FB00000600240030406000030024003080600EF
:101FC000030C060000000C4010B52A48D0ED030AAF
:101FD000294890ED000AB8EE400AF4EEC00AF1EE8E
:101FE00010FA03D925480068002841D00020244970
:101FF00008600120234908702349C866234890EDF2
:10200000220ADFED230A60EE200A224890ED000A42
:10201000B8EE400AF4EEC00AF1EE10FA13DD3023F8
:10202000002201211C48FEF7CDFD302300220221B1
:102030001948FEF7C7FD302344F6206201211748F6
:10204000FEF7C0FD14E000200E4908701149086039
:102050000B490860084908600120114908609FED9C
:10206000110A0A4880ED220A9FED0E0A80ED210A2E
:1020700010BD000094130020EC020020DC020020C0
:10208000D402002070020020F41300205812002017
:1020900000007A4474020020C8110020E8110020DA
:1020A000D8020020000000001649042804BF086878
:1020B00020F4803018D0052804BF086820F40030D0
:1020C00012D0062812D00F2815D0102838BF70471C
:1020D000103800F01F01012202FA01F142090A48FA
:1020E00050F822000160704708607047086820F4CB
:1020F0008020086070474FF0E020016921F0020164
:102100000161704724ED00E000B700001649042883
:1021100004BF086840F4803018D0052804BF086860
:1021200040F4003012D0062812D00F2815D0102805
:1021300038BF7047103800F01F01012202FA01F188
:1021400042090A4850F82200016070470860704751
:10215000086840F48020086070474FF0E020016973
:1021600041F002010161704724ED00E0ECB600008F
:1021700010B5FEF7EBF8002818BF012010BD10B510
:10218000FEF7EBF8002818BF012010BD30B40A4D4F
:102190002A680A4B9A421CBFD5F800C0002207D01B
:1021A0005CF8224043F82240521C9B2AF8D32B6053
:1021B00043F8201030BC704708ED00E00008002014
:1021C00010B502460B681468A34201D1012010BD6E
:1021D0000020FCE710B502460B681468A34201D149
:1021E000012010BD0020FCE710B502460B68146802
:1021F000A34201D1012010BD0020FCE770B50346C9
:102200000D681C68681CB0FBF2F602FB1600A042C9
:1022100001D1012070BD0020FCE770B503460D68B8
:102220001C68681CB0FBF2F602FB1600A04201D14C
:10223000012070BD0020FCE770B503460D681C68E6
:10224000681CB0FBF2F602FB1600A04201D101208F
:1022500070BD0020FCE7000010B52DED068B28486E
:102260000068002849D02748006808F079FE41EC52
:102270001A0B9FED250B53EC102B08F07BFB41EC68
:10228000180B2348006808F06BFE41EC190B53EC67
:10229000182B08F06DFC30D21E48007800282CD096
:1022A0003023002201211C48FEF78CFCB7EE000A07
:1022B0001A4880ED010A0020114908601849086099
:1022C00018490860184908601849086018490860EA
:1022D00018490860184908601849086618490860D4
:1022E00018490860184908609FED180A184880EDE1
:1022F000220A9FED160A80ED210ABDEC068B10BD67
:10230000D80200209C0100209A9999999999E93F57
:1023100074010020F4000020C8110020C413002024
:10232000F4020020D8030020DC0300208C030020EE
:1023300088030020C8030020C4030020F4130020F9
:10234000D4030020D0030020CC03002000000000B4
:10235000581200202DE9F04FB5B00025A946AA4635
:10236000AB46C82103A8FEF7C1F800240027A04609
:102370000020029001900026BD49087003F066FA23
:10238000E8B103F063FA182802DD1420FEF7DCFD43
:102390000120B849087000BF03F0FCFCB6490A6888
:1023A0000968491CB44B1960B449885403F04EFACB
:1023B0000028F1D1B2480078401CB1490870AE48FD
:1023C0000568082D3BD10020AE490870A949087066
:1023D000AD490870AD490870AD490860AD49086065
:1023E000A648007801281CD1A4484078032818D1B9
:1023F000002405E0A148005D03A90855601CC4B293
:10240000AC42F7D3002404E000209C490855601C2E
:10241000C4B2AC42F8D3002097490860FFF716FB1E
:102420000DE0002404E0002094490855601CC4B26B
:10243000AC42F8D3002090490860FFF707FB0C2D51
:102440003BD10020904908708A4908709249086081
:102450008C4908708D4908708E490860874800785B
:1024600001281CD185484078062818D1002405E0B1
:102470008248005D03A90855601CC4B2AC42F7D382
:10248000002404E000207D490855601CC4B2AC4221
:10249000F8D3002078490860FFF7D8FA0DE000244F
:1024A00004E0002075490855601CC4B2AC42F8D362
:1024B000002071490860FFF7C9FA0C2D3BD90020B4
:1024C000724908706B4908706E4908706E4908704F
:1024D000714908606E4908606848007801281CD17D
:1024E00066484078102818D1002405E06348005D54
:1024F00003A90855601CC4B2AC42F7D3002404E021
:1025000000205E490855601CC4B2AC42F8D30020DC
:1025100059490860FFF79AFA0DE0002404E0002012
:1025200056490855601CC4B2AC42F8D30020524949
:102530000860FFF78BFA082D1AD200204D49087069
:102540005049087050490870504908705049086057
:1025500050490860002404E0002048490855601CE8
:10256000C4B2AC42F8D3002043490860FFF76EFACA
:10257000082D1CD90C2D1AD200203E490870424962
:102580000870404908704149087043490860414952
:102590000860002404E0002038490855601CC4B2DB
:1025A000AC42F8D3002034490860FFF74FFAA02D61
:1025B0001AD900202F490870344908703149087031
:1025C000314908703449086031490860002404E04A
:1025D00000202A490855601CC4B2AC42F8D3002040
:1025E00025490860FFF732FA9DF80C00012837D121
:1025F000A91E03A805F0FCFE87B2681E03A9095CAA
:10260000A81E03AA105C41EA0028474524D19DF882
:102610000C0001909DF80D60032E06D103A914480B
:1026200000F0FEF8012012490870062E06D103A919
:102630000F4800F053FA01200D490870102E07D101
:1026400003A90B4800F02AF80120094908700AE0A4
:1026500006200749087006E005200549087002E0D9
:102660000420034908700248007835B0BDE8F08FB7
:102670002002002098020020500200206415002053
:10268000880200209A020020990200209B0200206C
:1026900090020020940200208C0200202DE9F04FCF
:1026A00095B082460C460020149013900026002717
:1026B0001290119010900F90002580468146342191
:1026C00002A8FDF713FF00200190834600902078B8
:1026D000149060781390A6783602E0780643277944
:1026E0003F0260790743C6F124001290701E00EB90
:1026F00087000F90002E4FD0232E4DD8751E1298B4
:10270000874243D80F988C2840D84FF0060935E00F
:1027100001204049087009F10300205C3E4941F85E
:102720002500084650F8251009F10200205C41EA16
:102730000020394941F82500084650F8251009F1D4
:102740000100205C41EA0040334941F82500084679
:1027500050F8250014F8091040EA01602E4941F8AC
:10276000250051F8250007F0D1FD2C48006800EB4A
:10277000850080ED000A09F104096D1C062000EBBC
:1027800087004845C4D80120019008E0002001904E
:102790000C208AF8000002E00B208AF80000019863
:1027A000012833D10422404608F1010802A90A5445
:1027B0001398C2B2414608F1010802A84254C6F378
:1027C0000722404608F1010802A90A54404608F1D0
:1027D00001080E54C7F30722404608F101080A54C5
:1027E000404608F101080F54414602A805F000FEDA
:1027F0001FFA80FB4FEA2B22404608F1010802A98C
:102800000A54404608F1010801F800B015B0BDE8CF
:10281000F08F0000C1020020CC1400207C020020B8
:102820002DE9F04FA5B082460F460020249023905A
:102830000024002622902190814620908046002589
:10284000782102A8FDF752FEA346002001903878B7
:10285000249078782390BC782402F87804433E7959
:10286000360278790643C4F115002290601E00EB11
:1028700086002090002C6FD0142C6DD800BF0EE085
:102880003848006800EB8900D0ED000AB0EE600A1D
:1028900006F0C2F9344941F8290009F10109B9F1FA
:1028A000140FEDD32298864251D8209850284ED844
:1028B000A4F1010804208DF808002398C0B28DF817
:1028C0000900200A8DF80A00E0B28DF80B00300AEA
:1028D0008DF80C00F0B28DF80D00B00021900625A7
:1028E0001CE0214850F82800000E02A948551E4857
:1028F00050F82800C0F3074102AA681C11541A4876
:1029000030F82800C0F30721A81C1154164810F80D
:102910002810E81C11542D1D08F101082198001DF4
:102920008542DED3294602A805F062FD1FFA80FB2E
:102930004FEA2B2228466D1C02A90A5428466D1C1A
:1029400001F800B0294602A803F05CFA07E008206D
:102950008AF8000003E0FFE707208AF8000025B0AE
:10296000BDE8F08F78020020941400202DE9F04F8C
:10297000ADB0074689469246342120A8FDF7B6FD42
:1029800000240025A346A04600201F901E9000268C
:102990001D901C901B90642102A8FDF7A7FD00204C
:1029A00001904FF0010B4FF009083870404890ED4E
:1029B000080AF7EE000A30EE200A80ED080A00BF90
:1029C00011E0062E00D10DE03A48006800EB8600C9
:1029D000D0ED000AB0EE600A06F01EF9364941F863
:1029E000260000BF761C092EEBD33148806932499E
:1029F00088612046641C20A901F800902046641CD0
:102A000001F800A0CBF307222046641C0A5420469C
:102A1000641C01F800B0C8F307222046641C0A5465
:102A20002046641C01F800804FEA88001E900624AE
:102A30001BE0214850F82500000E20A908551E482B
:102A400050F82500C0F3074120AA601C11541A4811
:102A500030F82500C0F30721A01C1154164810F8C7
:102A60002510E01C1154241D6D1C1E98001D84426D
:102A7000DFD3214620A805F0BBFC80B21C901C9837
:102A800002122046641C20A90A541C98C2B2204697
:102A9000641C0A54012002F0C5FD214620A803F061
:102AA000B1F90D20387038782DB0BDE8F08F0000F6
:102AB00070130020800200204015002010B5122263
:102AC00004210448FFF752FF0D2802D101200249DA
:102AD000087010BD210200209F0200202DE9F04F58
:102AE00095B082460C4600201490139000260027D3
:102AF0001290119010900F9000258046814634214D
:102B000002A8FDF7F3FC0020019083460090207896
:102B1000149060781390A6783602E07806432779FF
:102B20003F0260790743C6F124001290701E00EB4B
:102B300087000F90002E4DD0232E4BD8751E129873
:102B4000874243D80F988C2840D80120404908700C
:102B50004FF0060932E009F10300205C3D4941F8DD
:102B60002500084650F8251009F10200205C41EAD2
:102B70000020384941F82500084650F8251009F191
:102B80000100205C41EA0040324941F82500084636
:102B900050F8250014F8091040EA01602D4941F869
:102BA000250051F8250007F0B1FB2B48006800EB29
:102BB000850080ED000A09F104096D1C062000EB78
:102BC00087004845C7D80120019006E00A208AF80E
:102BD000000002E009208AF800000198012833D1A2
:102BE0000422404608F1010802A90A541398C2B20F
:102BF000414608F1010802A84254C6F307224046A4
:102C000008F1010802A90A54404608F101080E54CF
:102C1000C7F30722404608F101080A54404608F16C
:102C200001080F54414602A805F0E2FB1FFA80FBA1
:102C30004FEA2B22404608F1010802A90A544046F7
:102C400008F1010801F800B015B0BDE8F08F0000F0
:102C5000C1020020CC1400207C02002010B53023DB
:102C6000002201211648FDF7ADFF3023002202218A
:102C70001348FDF7A7FF3023002201211148FDF77B
:102C8000A1FF002210211048FEF7DBFF00200F49B2
:102C90008861C86108620E49C8639FED0E0A0E483C
:102CA00080ED000A00200D4908700D4890ED130AD0
:102CB000BCEEC00A10EE100A0A49087010BD0000F0
:102CC000C8110020E811002000600040C41300205B
:102CD000F413002000000000000400203702002050
:102CE000581200202D04002010B52DED108B8AB055
:102CF000044600EE104AB8EEC00AB0EE408A9FEDDE
:102D0000F40AF0EE408AF34890ED280AB4EEC80ABF
:102D1000F1EE10FA7ED890ED290AB4EEC80AF1EE71
:102D200010FA77DB90ED1D0A10EE101A084608F035
:102D300017F941EC190BE74890ED1C0A20EE080A40
:102D400010EE101A084608F00BF9CDE9040118EE50
:102D5000100A08F005F941EC1E0B9FEDDF1BB0EEE9
:102D60004E0AF0EE6E0A04F013F8B0EE40CAF0EE30
:102D700060CAD84890ED1B0A10EE101A084608F0F9
:102D8000EFF841EC1D0B53EC1C2B07F0F3FD41EC6D
:102D90001A0B18EE100A08F0E3F841EC1F0B9FED38
:102DA000D01BB0EE4F0AF0EE6F0A03F0F1FFB0EE69
:102DB00040DAF0EE60DAC74890ED1A0A10EE101A09
:102DC000084608F0CDF841EC1E0B53EC1D2B07F024
:102DD000D1FD41EC1C0B18EE100A08F0C1F841ECD3
:102DE0001F0B9FEDC11BB0EE4F0AF0EE6F0A03F010
:102DF000CFFFB0EE40DAF0EE60DAB64890ED190A97
:102E000010EE101A084608F0ABF841EC1E0B53EC1C
:102E10001D2B00E032E007F0ADFD53EC1C2BCDE99B
:102E200000019DED000B51EC100B07F029FB41EC6C
:102E30001B0B53EC1A2B07F023FBCDE902019DED90
:102E4000040B53EC102B9DED020B51EC100B07F013
:102E500017FB53EC192BCDE906019DED060B51EC48
:102E6000100B07F00DFBCDE908019DED080B51ECAF
:102E7000100B07F0D3FA08EE900A23E1954890ED85
:102E8000290AB4EEC80AF1EE10FA7CD290ED2A0AB3
:102E9000B4EEC80AF1EE10FA7BDB90ED210A10EED9
:102EA000101A084608F05CF841EC1A0B894890EDBE
:102EB000200A20EE080A10EE101A084608F050F812
:102EC00041EC1C0B18EE100A08F04AF841EC1F0BFD
:102ED0009FED811BB0EE4F0AF0EE6F0A03F058FF32
:102EE000B0EE40DAF0EE60DA7A4890ED1F0A10EEAC
:102EF000101A084608F034F841EC1E0B53EC1D2B59
:102F000007F038FDCDE9060118EE100A08F028F8A0
:102F100041EC1F0B9FED721BB0EE4F0AF0EE6F0AF3
:102F200003F036FFB0EE40DAF0EE60DA694890ED7B
:102F30001E0A10EE101A084608F012F841EC1E0B9B
:102F400053EC1D2B07F016FDCDE904019DED060B9A
:102F500053EC102B9DED040B51EC100B07F090FA85
:102F600053EC1C2BCDE908019DED080B51EC100B27
:102F700007F086FA41EC1B0B53EC1A2B07F080FA92
:102F800041EC190B00E004E007F048FA08EE900A63
:102F900098E0504890ED2A0AB4EEC80AF1EE10FA13
:102FA0007FD290ED2B0AB4EEC80AF1EE10FA78DB6E
:102FB00090ED250A10EE101A084607F0D1FF41ECFB
:102FC0001A0B444890ED240A20EE080A10EE101A5D
:102FD000084607F0C5FFCDE9080118EE100A07F012
:102FE000BFFF41EC1F0B9FED3C1BB0EE4F0AF0EE14
:102FF0006F0A03F0CDFEB0EE40DAF0EE60DA35484D
:1030000090ED230A10EE101A084607F0A9FF41ECD4
:103010001E0B53EC1D2B07F0ADFCCDE9040118EE9F
:10302000100A07F09DFF41EC1F0B9FED2D1BB0EE2A
:103030004F0AF0EE6F0A03F0ABFEB0EE40DAF0EEAE
:1030400060DA244890ED220A10EE101A084607F0C4
:1030500087FF41EC1E0B53EC1D2B07F08BFC41EC62
:103060001C0B9DED040B53EC102B07F009FACDE976
:1030700006019DED080B53EC102B9DED060B51EC5A
:10308000100B07F0FDF941EC1B0B53EC1A2B07F06A
:10309000F7F941EC190B07F0C1F908EE900A11E0BD
:1030A000FFE70C4890ED2B0AB4EEC80AF1EE10FAD7
:1030B00004D29FED0F0AF0EE408A03E09FED040A70
:1030C000F0EE408AB0EE680A0AB0BDEC108B10BD7D
:1030D00000000000BC0D00200000000000000040C7
:1030E0000000000000000840000000000000104048
:1030F0000050C34610B51B48007838B900201A4963
:10310000C8631A490860012016490870174800680A
:1031100042F21071884220D8B2EE080A144880EDBD
:10312000070A90ED070AF3EE040A30EEC00A80EDBC
:10313000060A9FED100A104880ED000A05F00CFB0E
:1031400030230D4890ED000ABCEEC00A10EE102AA4
:1031500001210A48FDF736FD02E001200249C8635B
:1031600010BD000037020020F41300206C02002084
:10317000941300200000000000040020E81100204B
:1031800010B52DED068BAB48007801287DD0AA48FC
:1031900090ED040AA94880ED000AA74890ED050AC1
:1031A000A74880ED040A00200CE0A64901EB80014D
:1031B00091ED000AA449D1ED000A30EE200A81ED1C
:1031C000000A401C3228F0DB9F4890ED000ADFED3A
:1031D0009F0A80EE201A9E4880ED001A9D4890EDCF
:1031E000000A9B48D0ED000A30EE600A9A4880ED54
:1031F000000A006807F0B4FE41EC190BB0EE490A72
:10320000F0EE690A03F0BAFDB0EE408AF0EE608A93
:1032100051EC180B07F002F990490860084690ED50
:10322000000AF0EE000AB4EEE00AF1EE10FA0CDD4E
:103230008B4890ED0B0AF7EE000AB4EE600AF1EE4F
:1032400010FA02D0002087490860874890ED000AF4
:10325000864880ED000A8348006850B1844890EDAC
:10326000030A7C48D0ED000AB4EE600AF1EE10FAD1
:1032700032D0804890ED6F0AD0ED6E0A7C4890ED18
:10328000031A00EE810A784800E06AE080ED000A47
:10329000784890ED6F0AD0ED6E0A754890ED031AEC
:1032A00000EE810A714880ED000A714890ED030A32
:1032B0006848D0ED000AB4EEE00AF1EE10FA04DD41
:1032C000B6EE000A6C4880ED000A694890ED030AEA
:1032D000604880ED000A34E05E48006807F040FE78
:1032E00041EC1A0B9FED650B53EC102B07F042FBE2
:1032F00041EC180B5948006807F032FE41EC190BFD
:1033000053EC182B07F034FC1BD2534890ED000A05
:10331000F0EE000A80EE201A80ED001A5548D0ED3C
:103320006E0A514890ED000A4B4890ED001A01EEEC
:10333000200A4D4880ED000A9FED520A4E4880ED6C
:10334000000A9FED510A404880ED000A00204F49D5
:10335000087001203749087042480068401C414904
:1033600008603648006807F0FBFD41EC1A0B9FED42
:10337000480B53EC102B07F0FDFA41EC180B4648B4
:10338000006807F0EDFD41EC190B53EC182B07F02A
:10339000B5FA0CD84148007848B930230022012101
:1033A0003F48FDF70FFC01203C4908702AE0234804
:1033B000006807F0D5FD41EC1A0B9FED350B53EC7F
:1033C000102B07F0D7FA41EC190B3348006807F0CF
:1033D000C7FD41EC180B53EC192B07F0C9FB11D2B8
:1033E0002E48007801280DD12E49086030231E4850
:1033F00090ED000ABCEEC00A10EE102A0121284808
:10340000FDF7E0FB0C4890ED050A204801780078B4
:10341000401C1E4A10700B4800EB810080ED000A32
:1034200010460078322802D1002011460870BDEC09
:10343000068B10BDF8030020081200209C0100201C
:10344000C4130020DC0A0020B40100200000484220
:10345000A8010020B0010020DC000020AC01002009
:1034600058120020BC010020C4000020C800002029
:10347000E4120020BC0D0020A00100209A99999927
:103480009999A93FCDCC4C3F00000000BA01002023
:103490009A9999999999E93F74010020F4000020C4
:1034A000E8110020D803002010B57A4800780128E0
:1034B00012D0794890ED010AF0EE000AB4EE600AED
:1034C000F1EE10FA08D090ED010AF1EE040AB4EE24
:1034D000600AF1EE10FA0BD1704890ED050A7048C1
:1034E000D0ED000A30EEC00A6E4880ED000A21E0FF
:1034F00068480078022812D0674890ED010AF0EE83
:10350000080AB4EE600AF1EE10FA08D090ED010A54
:10351000F1EE0C0AB4EE600AF1EE10FA0AD15F483F
:1035200090ED050A6048D0ED000A30EEC00A5D4813
:1035300080ED000A5B4890ED000A5C48D0ED000A7F
:1035400030EE600A5A4880ED000A5A4890ED000AB1
:103550005948D0ED000A80EE201A524890ED000A3A
:1035600021EE000A554880ED000A554890ED000A0A
:10357000504890ED001AC0EE010A4A4890ED000A4A
:103580004A4890ED001AF0EE001A01EEC10A4D48CB
:1035900090ED001A30EE010A20EE800A4A4880EDD4
:1035A000000A434890ED000A4448D0ED000A30EE8E
:1035B000200A4548D0ED000A70EE200A434890EDFD
:1035C000000A434890ED001A01EE200A414880EDC0
:1035D000000A344890ED000A344880ED000A90ED6E
:1035E000000A384880ED000A3B480068642802D988
:1035F000042039490860374890ED000A334880EDCF
:10360000000A254890ED020ADFED340A30EEC00AC8
:103610003048D0ED000A20EE200ADFED310A80EEBE
:10362000201A304880ED001A2A4890ED000A2D48F3
:10363000D0ED000A30EE600A2B4880ED000A2948E0
:1036400090ED000ABDEEC00A10EE100AFDF704F876
:10365000BCEEC00A254880ED060A234890ED000A1A
:10366000BDEEC00A10EE100AFFF73EFBBCEEC00A2A
:103670001E4880ED070A30230221C2691C48FDF76D
:10368000A1FA1A483023012182691948FDF79AFAF4
:1036900010BD0000A3000020E4120020081200204A
:1036A000340100209C0300203C010020F800002091
:1036B000AC0300201801002014010020B0030020FA
:1036C0001C010020FC000020B403002000010020A9
:1036D0001001002004010020980000200000C842D2
:1036E00000009E42080100200C010020C4130020AD
:1036F000C811002010B52DED068BFE4890ED0A0A8A
:10370000FD4880ED030AFB4890ED050AFA4880ED7C
:10371000040AFA48006800287ED1F7480078022899
:103720007ADD002007E09FEDF60AF64901EB800103
:1037300081ED000A401C0528F5DB9FEDF30AF348F4
:1037400080ED000A0020F24908700120EA49087063
:10375000E84890ED040ADFEDEF0A80EE801A9FED55
:10376000EE0A21EE000AED4880ED020A90ED020A11
:10377000E048D0ED070A20EE200AD0ED070AB7EEA8
:10378000001A70EE810A80EE201AE44880ED031AD8
:1037900090ED020AD0ED030A30EE600A80ED040AD3
:1037A00090ED020AF2EE040A20EE200ADFEDDC0AB8
:1037B00080EE201A80ED001A90ED030AD0ED000A89
:1037C00030EE600A80ED030ACA4890ED090AD3483A
:1037D000D0ED030A20EE200ADFEDD10A80EE201A98
:1037E00080ED011AC34890ED050ACC48D0ED030ADC
:1037F00080EE201A9FEDC70A21EE000A80ED050A2F
:1038000090ED050ABB48D0ED020A9FEDC51A71EE96
:10381000600A20EE200A00E00EE0DFEDC20A80EE32
:10382000201ABE4880ED071A90ED050AD0ED070A70
:1038300030EE600A80ED060AAF480078022844DACC
:1038400003F09CF8AB4890ED0A0AAB4880ED030A00
:10385000A84890ED050AA84880ED040AB24890ED0A
:10386000040AA54880ED050A90ED030AD0ED050A8B
:1038700030EE600A80ED020A90ED020AF1EE040AD1
:10388000B4EEE00AF1EE10FA07D290ED030AF1EE81
:10389000040A30EE600A80ED050A974890ED050AAB
:1038A0009448D0ED030A30EE600A80ED120A9F487A
:1038B00090ED050AF7EE000AB4EEE00AF1EE10FA18
:1038C00002D201208C4908705EE18B480078022802
:1038D000FADB9748006800287BD1964800680028EA
:1038E000FAD186480068012873D9934890ED000A00
:1038F000B5EEC00AF1EE10FA03D2B1EE040A80ED83
:10390000000A8D4890ED000ADFED8C0AB4EEE00A63
:10391000F1EE10FA03DD9FED890A80ED000A86487A
:1039200090ED000A7A4801780078401C784A1070BF
:10393000744800EB810080ED000A7048006804289C
:1039400027D900200CE06F4901EB800191ED000ABE
:103950007B49D1ED000A30EE200A81ED000A401CBF
:103960000528F0DB6A480078042802DD0020684959
:103970000870734890ED000AF1EE040A80EE201AF8
:103980005D4880ED061A9FED5E0A6D4880ED000AE5
:103990000CE05A48006848B158480068042805D827
:1039A0005A4890ED000A544880ED060A524890EDBE
:1039B000060A10EE101A084607F0D2FA41EC1A0B6C
:1039C0009FED600B53EC102B06F0D4FF41EC190B6C
:1039D00000E06EE09FED5D0B53EC102B07F0FEF85E
:1039E00041EC180B06F01AFD4349C861084690EDFA
:1039F000070AF0EE000AB4EEE00AF1EE10FA03D284
:103A0000B0EE000A80ED070A3A4890ED050A5148E9
:103A1000D0ED000A30EE600A374880ED010A90EDE3
:103A2000010AF2EE040AB4EEE00AF1EE10FA08DC44
:103A300090ED010AFAEE040AB4EEE00AF1EE10FA93
:103A400010D22D4890ED070AD0ED060A20EE200A8C
:103A5000D0ED010A80EE801A90ED050A31EE000AE1
:103A600080ED050A244890ED030AD0ED050A30EEFA
:103A7000600A80ED020A90ED020AF1EE040AB4EE4B
:103A8000E00AF1EE10FA07D290ED030AF1EE040A13
:103A900030EE600A80ED050A174890ED050A1548DA
:103AA000D0ED030A30EE600A80ED120A00F0D0FA81
:103AB0006AE0104890ED040ADFED160A80EE801AE5
:103AC0009FED150A21EE000A144880ED020A90EDE0
:103AD000020A0848D0ED070A20EE200AD0ED070AB6
:103AE000B7EE001A70EE810A80EE201A0B4880EDC6
:103AF000031A31E0E4120020741400209800002022
:103B000000000000081C002000004842980100202E
:103B10002C0400200000704200007A44941300201E
:103B20000000C84200009E42C4130020081200207A
:103B3000D8020020D4020020880100200000484361
:103B4000280400209A9999999999A93F00000000AA
:103B5000000018409C01002090ED020AD0ED030AFD
:103B600030EE600A80ED040A0C4890ED090A0C481A
:103B7000D0ED030A20EE200A5FED170A80EE201A2E
:103B800080ED011A00F064FA06480078642802DD2E
:103B90000A2004490870BDEC068B10BDE412002019
:103BA000941300207414002010B52DED0A8BCA4820
:103BB0000068002874D0C9488069B0F5FA5F7CD9E4
:103BC000C648806946F2A811884276D2C3498869FE
:103BD00006F081FE41EC190B9FEDC10B53EC102B4D
:103BE00006F00AFD41EC180B06F018FCBE4908600F
:103BF0000846006807F0B4F941EC1C0B9FEDBB0BC5
:103C000053EC102B06F0B6FE41EC1A0BB6480068D8
:103C100007F0A6F941EC1B0B53EC1A2B07F0B6F892
:103C200041EC180BB34890ED0C0A10EE101A084640
:103C300007F096F941EC190B53EC182B06F098FF9E
:103C40002FD8A948006807F08BF941EC1C0B9FEDB9
:103C5000A70B53EC102B06F08DFE41EC1A0BA2487B
:103C6000006807F07DF941EC1B0B53EC1A2B06F0B2
:103C700007FC41EC180B9F4890ED0C0A10EE101A4F
:103C8000084607F06DF941EC190B53EC182B06F0C0
:103C900035FE06D80020984908609849C8610CE0B4
:103CA00007E195480068401C934908600846006891
:103CB000322802D901209149C8618848C069B0F50D
:103CC000FA5F7BD98548C06946F2A811884275D24F
:103CD0008249C86906F0FFFD41EC190B9FED800B8E
:103CE00053EC102B06F088FC41EC180B06F096FB09
:103CF000834908600846006807F032F941EC1C0B64
:103D00009FED7A0B53EC102B06F034FE41EC1A0BAE
:103D10007B48006807F024F941EC1B0B53EC1A2B8D
:103D200007F034F841EC180B724890ED0B0A10EED6
:103D3000101A084607F014F941EC190B53EC182B34
:103D400006F016FF2ED86E48006807F009F941EC1E
:103D50001C0B9FED660B53EC102B06F00BFE41EC99
:103D60001A0B6748006807F0FBF841EC1B0B53EC9B
:103D70001A2B06F085FB41EC180B5E4890ED0B0A00
:103D800010EE101A084607F0EBF841EC190B53EC53
:103D9000182B06F0B3FD05D800205A490860574992
:103DA00088610BE057480068401C56490860084687
:103DB0000068322802D9012050498861524890EDAC
:103DC000000ADFED520AB4EEE00AF1EE10FA7FDDF0
:103DD00090ED000ADFED4E0AB4EEE00AF1EE10FAC3
:103DE00076D2006807F0BCF841EC190B9FED3C0B54
:103DF00053EC102B06F000FC41EC180B06F00EFB08
:103E0000444908600846006807F0AAF841EC1C0B1A
:103E10009FED360B53EC102B06F0ACFD41EC1A0B6A
:103E20003C48006807F09CF841EC1B0B53EC1A2B44
:103E300006F0ACFF41EC180B2E4890ED0D0A10EE89
:103E4000101A084607F08CF841EC190B53EC182BAC
:103E500006F08EFE2ED82F48006807F081F841EC5E
:103E60001C0B9FED220B53EC102B06F083FD41EC55
:103E7000180B2848006807F073F841EC1B0B53EC53
:103E8000182B06F0FDFA41EC190B1A4890ED0D0ABB
:103E900010EE101A084607F063F841EC1A0B53ECC9
:103EA000192B06F02BFD05D800201B49086013498B
:103EB00008620DE018480068401C17490860084671
:103EC0000068322801D9012000E000200B49086277
:103ED000BDEC0A8B10BD0000D4020020C4130020EA
:103EE0000AD7A3703D6250401C0400209A9999990A
:103EF0009999C93F0812002058030020F4130020AC
:103F0000200400205C0300200004002000803B46C9
:103F100000E0AB46240400206003002010B54148B7
:103F2000007838B900204049C86340490860012042
:103F30003C4908703D48006842F2107188426CD8D4
:103F4000B2EE040A3A4880ED070A9FED3A0A80ED86
:103F5000060A394890ED6F0AD0ED6E0AB2EE021AE9
:103F600000EE810A354880ED000A314991ED070ADB
:103F7000BDEEC00A10EE100AFCF76EFBBCEEC00AE4
:103F80002F4880ED060A2A4991ED060ABDEEC00AC7
:103F900010EE100AFEF7A8FEBCEEC00A284880ED1D
:103FA000070A3023012182692648FCF70BFE2448CA
:103FB00030230221C2692348FCF704FE30231F4846
:103FC00090ED000ABCEEC00A10EE102A01211E4836
:103FD000FCF7F8FD1D4890ED050AD0ED060A30EE1D
:103FE000600AF1EE040AB4EEE00AF1EE10FA03DB27
:103FF00001200D49086313E00B48406B80B913485A
:1040000090ED050AF1EE040AB4EEE00AF1EE10FAC2
:1040100006D200200449086302E001200249C86377
:1040200010BD000037020020F41300206C020020B5
:104030009413002000000000BC0D002000040020AC
:10404000C4130020C8110020E8110020081200202D
:1040500010B52DED068BF848006800287DD1F74893
:1040600000680028FAD19FEDF60AF64880ED000AB4
:104070009FEDF30A80ED010A9FEDF10A80ED020A3F
:104080009FEDEF0AF04880ED080A9FEDED0AEF483A
:1040900080ED040A9FEDEA0AEB4880ED020A002059
:1040A000EB490860EB490860EB490860EB490860A0
:1040B000EB4908600120E04908609FEDE10AE9480A
:1040C00080ED000A9FEDDE0AE74880ED000AE74830
:1040D00090ED120AB5EEC00AF1EE10FA03D29FED90
:1040E000D80A80ED120AE248006860B1DF4890ED1E
:1040F000120AD0ED030A30EE200ADE4880ED000AF5
:1041000004F0CEFE18E09FEDDC0ADC4880ED000AEA
:104110009FEDDB0ADB4880ED000A9FEDDB0ADB4800
:1041200080ED000A9FEDC60AD94880ED000AB2EE84
:10413000040AD84880ED000AD74890ED000AD74815
:1041400080ED000A9FEDBE0AD54880ED000A9FED84
:10415000BC0AD44880ED000A00E07FE09FEDB80A79
:10416000D14880ED000A9FEDB60AD04880ED000AE4
:104170000020CF490870CF4908609FEDB10ACE48B2
:1041800080ED000A0020CD4908709FEDAD0ACC48B3
:1041900080ED000A0020CB4908709FEDCB0ACB4888
:1041A00080ED000ACA4890ED000ACA4880ED000A76
:1041B0000020C94908809FEDA20AC54880ED000A89
:1041C0009FED9F0AC54880ED000A9FED9D0AC448F7
:1041D00080ED000A9FED9A0AC24880ED000A9FED2B
:1041E000980AC14880ED000A9FED950ABF4880ED0E
:1041F000000A9FED930ABE4880ED000A9FED900AE9
:10420000BC4880ED000A994890ED120ABA4880ED4A
:10421000000A9FED8B0AB94880ED000A0020B849DA
:1042200008809FED870A874880ED030A9FED840A86
:1042300080ED050A8E480068401C8D49086000200A
:10424000B0490880302345F2F0520121AE48FCF716
:10425000B9FC9FEDAE0AAE4880ED000A76480068D2
:1042600001287DD1834890ED000A10EE101A08460F
:1042700006F076FE41EC1A0B9FEDA60B53EC102BCB
:1042800006F078FB41EC180B704890ED050A10EE33
:10429000101A084606F064FE41EC190B53EC182B7B
:1042A00006F066FC0DD88C48008850B99B4890ED0C
:1042B000000AB8EE400A864880ED000A01208649CF
:1042C0000880604890ED030A6048D0ED050AB4EE1E
:1042D000E00AF1EE10FA04D290ED050A594880ED9B
:1042E000030A584890ED050A5748D0ED000AB4EE8D
:1042F000E00AF1EE10FA0AD890ED000A514880ED7C
:10430000050A7B4890ED000A854880ED000A854843
:10431000D0ED010A514890ED000AB8EE400AF4EEE3
:10432000C00AF1EE10FA05D800204C4908600120BF
:104330004B4908607B48D0ED030A784890ED000AAD
:10434000B8EE400AF4EEC00AF1EE10FA1DD80020D3
:1043500039490860714908603A498861302300E0B2
:1043600019E0002201217048FCF72CFC30230022C8
:1043700002216D48FCF726FC00203249C8618861A3
:1043800001202E4908606949086000BF9FED5F0A5F
:104390005F4880ED000A29480068012848D1344868
:1043A0000068012807D105F0D1FA404890ED000AD5
:1043B0005F4880ED000A244890ED010A3E48D0EDA8
:1043C000000AB4EEE00AF1EE10FA05DD1E4890EDA9
:1043D000010A394880ED000A5248D0ED040A5548D8
:1043E00090ED000AB8EE400AF4EEC00AF1EE10FAC1
:1043F0001ED8002050490860104908604D490860E7
:104400001A4890ED010AF1EE040AB4EE600AF1EEEA
:1044100010FA05D149480078401C4849087002E06C
:10442000002046490870002040490860444908605F
:10443000BDEC068B10BD0000D4020020D802002085
:1044400000000000C4130020701300200812002098
:10445000CC030020D8030020DC030020F802002059
:10446000E4020020CC010020C8010020E41200205A
:1044700098000020A8000020CDCCCC3D10010020E9
:10448000295C0F3D140100200AD7A33C180100202D
:104490001C010020340100208C0100209401002028
:1044A00074010020780100207C0100208801002098
:1044B000F8030020C401002024010020F4000020A3
:1044C00048010020A200002000409C462C00002053
:1044D0005001002054010020580100209C030020BE
:1044E000FC000020B0030020B4030020AC03002037
:1044F0000001002004010020F8000020A40000209A
:1045000014020020A0000020E811002000E0AB46CB
:1045100000040020CDCCCCCCCCCCEC3FEC02002075
:10452000E403002094130020C81100208C03002015
:1045300098010020F4020020E802002074140020FA
:104540008803002010B52C4890ED050A2B48D0EDCB
:10455000030AB0EE001A70EE810AB4EEE00AF1EE42
:1045600010FA47D801202649086001221146254843
:10457000FDF767FB214890ED030AD0ED0C0A30EE01
:10458000600A1D48D0ED050AB4EEE00AF1EE10FA1B
:1045900030DBB7EE000A1C4880ED010A00201B4901
:1045A00008601B4908601B480078012802D10020E0
:1045B0001949087000201949086019490860104914
:1045C00008601849086018490860184908661849C1
:1045D000086018490860094890ED010AF1EE040AE4
:1045E000B4EE600AF1EE10FA04D113480078401CD2
:1045F0001149087010BD000008120020E4120020CC
:10460000C803002000500240C4130020D80200203C
:10461000F4020020D5040020D60400208C030020E2
:1046200088030020C4030020D4030020F4130020DA
:10463000D0030020CC0300207414002038B50020E3
:1046400000900121334800F0ACF804466946314837
:1046500000F08FF83048006818BB00BF0098FF28B2
:104660000BD100202D49086001202B490860002053
:104670002B4908602B4908600BE0FF21254800F01A
:1046800082F8264801680068401C244A10600A2904
:10469000E4D900BF214800680A2802D300201F493E
:1046A00008601D48006801282ED11F491C4A009847
:1046B000126888541A480068401C19490860084666
:1046C00000781A49174A1268885416480268006828
:1046D000401C144B18600846815C0E4800F053F8EB
:1046E0001048006815280FD900200E4908600A49B3
:1046F00008600B480068401E0D490860002008490A
:10470000086001200B4908602146024800F043F888
:1047100038BD0000009000407C0400209004002080
:1047200070040020740400204A1600202C1600207B
:10473000840400208004002010B4002BDDE901C4B3
:1047400018BF04234360B1FBFCFC0021891CBCFBA7
:10475000F1F35B1EFF2BF9D801619107090E02F0FE
:10476000300241EA03211143621E1143016010BC73
:104770007047C26812F0040F04BF002070478068C1
:10478000086001207047C26812F0020F1ABF8160F2
:104790000120002070470162704742691143416166
:1047A0007047002914BFC069806970472DE9F04740
:1047B0004FF00009CA460024002500260027A04625
:1047C0004FF001094FF0010A002046490860FF211F
:1047D0004548FFF7D8FF45480068401C434908603A
:1047E00043480068012863D142480068461E012002
:1047F00041490870012404E04048005D3E490855E5
:10480000641C3C4800688442F6D3701E3A49095C37
:10481000B01E394A105C41EA0028B11E104603F070
:10482000E7FD87B2B84538D10020354908603549E1
:1048300008650024062526E02F49E81C085C32495B
:1048400041F82400084650F824102B4AA81C105C9C
:1048500041EA00202C4941F82400084650F8241071
:10486000681C105C41EA0040274941F824000846D2
:1048700050F824001146495D40EA0160224941F8A0
:1048800024002D1D641C122DD6D31F49086805F085
:104890003DFD1E4880ED070A04E019480068401CF1
:1048A000174908600020134908601149086004E0B6
:1048B00013480068401C12490860114800686428C9
:1048C00007D30120124908600E49086500200C49F1
:1048D000086006480068642802D100200349086087
:1048E000BDE8F08790040020009000408C04002078
:1048F0008004002084040020E41E00204A160020CA
:1049000044030020F4130020FC1E0020701300203C
:10491000480300201CB5214800F00CFA204800F0A4
:1049200009FA2048FDF75AF91F48FDF757F91F48C3
:10493000FDF754F91E48FDF751F90F211D48FDF709
:1049400072F900F04DF9044608201B4900231A466D
:10495000CDE9001021461948FFF7EEFE4FF08070B8
:1049600080694FF0FF314269144890474FF08070E2
:10497000806904210269114890474FF08070806C73
:104980000168322088474FF08070806981680B4849
:10499000884704210948FFF700FF1CBD011C00F0F7
:1049A000030800F0020003000204030002080300F1
:1049B000020C030000700040A0860100009000403F
:1049C00010B53B48007838B900203A49C8633A49E5
:1049D00008600120364908703748006841F2883184
:1049E000884261D8B2EE040A344880ED070A9FED90
:1049F000340A80ED060A9FED320A324880ED000A43
:104A00002E4991ED070ABDEEC00A10EE100AFBF721
:104A100023FEBCEEC00A2C4880ED060A274991ED22
:104A2000060ABDEEC00A10EE100AFEF75DF9BCEEF4
:104A3000C00A254880ED070A3023012182692348F6
:104A4000FCF7C0F8204830230221C2691F48FCF758
:104A5000B9F830231B4890ED000ABCEEC00A10EEF6
:104A6000102A01211A48FCF7ADF81A4890ED050A02
:104A7000DFED190AB4EEE00AF1EE10FA03DB0120D3
:104A80000C49486313E00B48406B80B9114890ED26
:104A9000050ADFED110AB4EEE00AF1EE10FA06D2D3
:104AA00000200449486302E001200249C86310BDA8
:104AB00037020020F41300206C0200209413002021
:104AC0000000000000040020C4130020C8110020D2
:104AD000E8110020081200200000024310B53548FC
:104AE00090ED180ABCEEC00A10EE100AC4B23248AB
:104AF000007818BBB3EE040A2E4880ED190AB3EE15
:104B0000040A80ED1A0A9FED2D0A80ED1B0A9FED25
:104B10002B0A80ED1C0A9FED2A0A80ED1D0A9FEDED
:104B2000290A80ED200A9FED270A80ED1E0A9FEDDD
:104B3000250A80ED1F0A01201F4908701C2C0CDD7E
:104B4000B7EE000A1B4880ED200AB7EE000A80EDA0
:104B50001E0AB7EE000A80ED1F0A20211A48FDF751
:104B60005FF81A49087010211748FDF759F81849DD
:104B7000087001211748FDF753F8174908701748C6
:104B8000D0ED0B0A00EE104AB8EE400AF4EE400AEF
:104B9000F1EE10FA04D09FED0B0A80ED0B0A06E04F
:104BA00000EE104AB8EE400A0C4880ED0B0A01F006
:104BB000CBFD10BD58120020DA04002000803B46D7
:104BC0000000FA450000000000600040DB04002007
:104BD000DC04002000500240DD040020941300207B
:104BE00070B44B4D2A6E296F11F0004F14BF01F0C5
:104BF000700002F03000202808BF464818D005DCBD
:104C000088B1102808BF444812D009E0302808BFF6
:104C100047F230500CD0702808BF4FF4004007D046
:104C200070BC002070477C203C4B00EA12101858E2
:104C30004FF0FF3311F0004F02D011F4006F06D097
:104C400001F0004C02F400645CEA040C36D1D5F8A3
:104C500060C1D5F8644104F01F06C4F30424641C49
:104C6000761C16FB04F46400B0FBF4F0CCF30904EA
:104C70004443CCF3892C00FB0CF0D5F810C004EBB6
:104C8000902042F480020CF4704CBCF5804F08BFB9
:104C9000234B13D009DCBCF5005F08BF214B0DD0BE
:104CA000BCF5405F08BF204B08E0BCF5E04F08BFF3
:104CB0001E4B03D0BCF5104F08BF1D4B12F4800FE4
:104CC00021D011F0004F19D011F0804F09D011F40C
:104CD000006F0CD001F0004C02F400625CEA0202AA
:104CE00005D0C1F3C551491CB0FBF1F00BE0400009
:104CF000C1F38651491CB0FBF1F004E0C2F3C3518B
:104D0000491CB0FBF1F0834238BF184670BC7047B5
:104D100000E00F4000093D000024F40044B700000B
:104D2000005A620200B4C40480F0FA0240787D01A7
:104D3000002D3101C0F307230749C0B2194401F027
:104D40007043C1F3130143EA411141EA800040F08E
:104D5000007001220260704700E60F40C0F3072296
:104D60000849C0B2114401F07042C1F3130142EA94
:104D7000411141EA800040F000700068002818BF2F
:104D80000120704700E30F40C0F307220849C0B27A
:104D9000114401F07042C1F3130142EA411141EAAA
:104DA000800040F000700068002818BF01207047A4
:104DB00000EA0F404FF0E020016941F00501016178
:104DC000704710B501460F20FDF7E0F94FF0E020E5
:104DD000016941F00201016110BD4FF0E021401E68
:104DE00048617047A7480068401CA6490860A6486B
:104DF0000068401CA4490860A4480068401CA349FE
:104E00000860A3480068401CA1490860A1480068E8
:104E1000401CA0490860A0480068401C9E490860EA
:104E20009E480068401C9D4908609D480068401CE1
:104E30009B4908609B480068401C9A490860012013
:104E4000994908709949087008460078012804D1EA
:104E500097480068401E96490860002093490870F2
:104E60008A480068052807D30120924908708748BE
:104E70000068401C8549086086480068B0F57A7F64
:104E800005D301208C4908700020824908608B48B6
:104E9000007801282CD18A480068401C88490860A5
:104EA00088480068401C8749086087480068401CA3
:104EB0008549086082480068012805D90120834996
:104EC000087000207E4908607E480068022805D9E5
:104ED00001207F49087000207A4908607A480068FC
:104EE0000D2805D901207B4908700020764908600B
:104EF0007948007801280ED178480068401C77492D
:104F00000860084600680A2805D90120744908701D
:104F10000020724908607348007801280ED1724859
:104F20000068401C7049086008460068012805D9DF
:104F300001206E49087000206B49086051480068E4
:104F40000A2805D301206A49087000204D490860ED
:104F50004D480068642805D3012066490870002088
:104F6000494908604F480068642805D30120624918
:104F7000086000204B4908606048007801280DD186
:104F80005F480068401C5E49086008460068322897
:104F900004D30020594908705A4908703C480068F9
:104FA000B0F57A7F05D301205749087000203849B1
:104FB000086056480068012809D155480068401C1F
:104FC0005349086053480068401C524908605248E1
:104FD0000068012804D151480068401C4F4908600E
:104FE0004F480068012804D14E480068401C4D49D4
:104FF00008604D480068012804D14C480068401CF6
:105000004A4908604A480068012804D149480068B4
:10501000401C4849086048480068012804D14748B6
:105020000068401C4549086045480078012804D1C3
:1050300044480068401C4349086043480078012800
:1050400004D142480068401C40490860404800685C
:10505000012804D13F480068401C3E4908603E4892
:105060000078012804D13D480068401C3B49086095
:105070003B480078012804D13A480068401C39496F
:10508000086070473C0200204402002038020020E3
:1050900048020020AC0200205C02002060020020D8
:1050A000BC03002054020020360200202802002009
:1050B0002C02002031020020B402002098020020BF
:1050C0008C02002090020020940200209A0200200E
:1050D000990200209B0200209F020020A8020020CD
:1050E000A00200209C020020A40200209D020020BB
:1050F0003202002034020020580200203302002037
:10510000400200201702002035020020D4020020B7
:10511000EC020020F8020020D8020020F402002057
:10512000DC020020F00200208C0300208803002015
:10513000D8030020DC030020D0030020CC03002093
:10514000D4040020CC040020D5040020D00400208A
:105150009403002090030020370200206C020020FE
:10516000700200207402002010B5FFF739FD4FF4E3
:105170007A71B0FBF1F42046FFF72FFE0348FFF7EA
:1051800020FEFFF717FEFCF7FAFF10BDE54D00000B
:105190001B49096841F47001194A116019491A4AFA
:1051A00011671A4911661A4911661A4911670020D8
:1051B00000E0401CB0F57A7FFBD31749124A116614
:1051C00016491167002000E0401CB0F57A7FFBD340
:1051D00013490D4A116600BF0B49096D01F04001EA
:1051E0004029F9D10F49084A11664FF0C071116783
:1051F000002000E0401C42F210718842FAD3704750
:1052000088ED00E01028800700E00F40D13A8E07BB
:10521000422D9E0100288001420D9E010008800160
:10522000420DDE014205DE0110B54FF08071896F3D
:10523000086880474FF08071896F08698047FFF7E1
:10524000CFFC124908604FF08070406CC16D10486F
:105250008847FFF7C5FC0D490860FFF785FF02F09E
:1052600035FFFBF727FDFCF73FFDFFF753FB00F091
:10527000DDFCFCF735F8FBF781FCFCF7EDF8B7EE49
:10528000000A044880ED130A10BD00004C02002003
:10529000400500C10812002010B52DED028BFEF76D
:1052A00083FC824890ED080A10EE101A084605F0BB
:1052B00057FE41EC180B9FED7E0B53EC102B05F0C5
:1052C0001DFB10D3794890ED080A10EE101A08461D
:1052D00005F046FE41EC180B9FED770B53EC102BBD
:1052E00005F046FC03D201207549086402E0002065
:1052F000734908646D4890ED090A10EE101A0846CB
:1053000005F02EFE41EC180B9FED6E0B53EC102BAD
:1053100005F0F4FA10D3654890ED090A10EE101A62
:10532000084605F01DFE41EC180B9FED680B53EC91
:10533000102B05F01DFC03D201206149486402E0F6
:1053400000205F49486420216248FCF769FC58B995
:10535000564890ED0E0AB5EEC00AF1EE10FA03D1F0
:1053600001205749486202E0002055494862102157
:105370005848FCF755FC58B94C4890ED0F0AB5EE6B
:10538000C00AF1EE10FA03D101204D49886202E013
:1053900000204B49886201214F48FCF741FC58B975
:1053A000424890ED100AB5EEC00AF1EE10FA03D1B2
:1053B00001204349886602E00020414988663B4855
:1053C00090ED0A0A10EE101A084605F0C9FD41ECEE
:1053D000180B9FED420B53EC102B05F08FFA10D3F6
:1053E000324890ED0A0A10EE101A084605F0B8FD92
:1053F00041EC180B9FED3B0B53EC102B05F0B8FB69
:1054000003D201202E49886402E000202C498864E0
:10541000264890ED110ADFED350AB4EEE00AF1EE10
:1054200010FA03DD01202649C86402E00020244967
:10543000C86401202E49086000202E4908602AE037
:105440002D4800682B49096850F821002B49086055
:105450000846006827490978884028490860244898
:105460000068244909788840214908602448006878
:105470000968884322490860084600681F4909688E
:1054800008431F490860012019490860194800684D
:10549000401C18490860174800682028D0D31848D5
:1054A000006802498864BDEC028B10BD0812002020
:1054B0000000000000001240000000000000164044
:1054C000F41300203333333333333040CDCCCCCCE2
:1054D000CCCC334000600040005002409A9999992A
:1054E000999925406666666666662A4000005C42B9
:1054F000980400209C0400208402002094040020D2
:1055000024030020816911F0100F0CBF00684FF0D8
:10551000FF307047826912F0200F06BF0160012042
:10552000002070478069012121EA10107047D0F8EF
:1055300018C01CF0080FFAD1D0F82CC02CF0100CB9
:10554000C0F82CC0D0F830C02CF0010C2CF4407CFA
:10555000C0F830C0D0F830C0B1EB021F34BF4CF0FF
:10556000200C2CF0200CC0F830C038BF5208C90005
:10557000B1FBF2F1491C49088A09426201F03F017E
:105580008162C36200218161C16A41F01001C16280
:10559000016B40F20132114301637047C16A41F06F
:1055A0001001C162016B40F2013211430163704787
:1055B000114341637047000010B5FCF7D9FD044664
:1055C000002004490860044908600CB9FCF7D7FDC5
:1055D00010BD0000400400203C04002010B5FCF782
:1055E000C7FD0446002004490860044908600CB95E
:1055F000FCF7C5FD10BD0000600400205C04002025
:1056000010B5FCF7B5FD04460020044908600449C4
:1056100008600CB9FCF7B3FD10BD0000BC0400200D
:10562000B804002070B505465DB1FCF7A1FD044645
:10563000002008490860084908604CB9FCF79FFD44
:1056400006E000BF04490348FCF7BAFD0028F9D082
:1056500070BD0000380400203404002070B50546F9
:105660005DB1FCF785FD0446002008490860084943
:1056700008604CB9FCF783FD06E000BF044903480D
:10568000FCF7A8FD0028F9D070BD000058040020E8
:105690005404002070B505465DB1FCF769FD044671
:1056A000002008490860084908604CB9FCF767FD0C
:1056B00006E000BF04490348FCF796FD0028F9D036
:1056C00070BD0000B4040020B004002041647047A5
:1056D000826B22EA010181637047826B114381630F
:1056E0007047002914BF006CC06B704710B50446AA
:1056F00015491648FCF764FD28BB1549154A126880
:1057000051F82200FCF7D0FC0CE013480F4A126855
:10571000815C2046FFF7FEFE0C480068401CC0B2CA
:105720000A490860204600F0A9F828B10649074850
:10573000FCF746FD0028E8D00549064A126851F8F2
:105740002200FCF7E3FC10BD3404002038040020E4
:105750006CB10000480400201C1C002010B5044659
:1057600017491848FCF736FD48BB1749174A126815
:1057700051F82200FCF798FC10E01548114A126815
:10578000815C2046FFF7C6FE0E480068401C64217D
:10579000B0FBF1F201FB12000A490860204600F05C
:1057A0006DF828B106490748FCF714FD0028E4D03D
:1057B0000549064A126851F82200FCF7A7FC10BD03
:1057C0005404002058040020B4B1000068040020F4
:1057D0001C1E002010B5044617491848FCF704FDAC
:1057E00048BB1749174A126851F82200FCF75CFCC5
:1057F00010E01548114A1268815C2046FFF78AFEC6
:105800000E480068401C6421B0FBF1F201FB12005D
:105810000A490860204600F031F828B106490748D7
:10582000FCF7E2FC0028E4D00549064A126851F86A
:105830002200FCF76BFC10BDB0040020B404002073
:10584000E8B10000C4040020081F002010B54FF488
:10585000807202490248FCF713FA10BD3C04002094
:105860004004002010B5642202490348FCF715FAF1
:1058700010BD00005C04002060040020806901214C
:1058800021EA50107047000070B504460D461646D8
:10589000194850F8240019490860194951F82400A2
:1058A000FFF748FA60232A46314614480068FFF79C
:1058B0003EFE0022114611480068FFF779FEFFF70F
:1058C0007BFE0120FFF7AEFE0E4804604FF0FF3173
:1058D0000A480068FFF7FCFE502108480068FFF7FF
:1058E000FCFE094951F82400FCF710FC034800684D
:1058F000FFF754FE70BD000050B1000044040020CA
:1059000088B10000480400206CB1000070B5044666
:105910000D4616461D4951F82400FFF71FFA00B93D
:1059200070BD1B4850F824001A490860174951F807
:105930002400FFF7FFF960232A4631461548006826
:10594000FFF7F5FD0022114612480068FFF730FE10
:10595000FFF744FE0120FFF781FE0F4804604FF07F
:10596000FF310C480068FFF7B3FE5021094800687A
:10597000FFF7B3FE094951F82400FCF7C7FB0548BF
:105980000068FFF70BFE00BFCAE70000C0B10000CF
:10599000A8B100006404002068040020B4B1000035
:1059A00070B504460D461646194850F824001949AA
:1059B0000860194951F82400FFF7BCF960232A4612
:1059C000314614480068FFF7B2FD00221146114825
:1059D0000068FFF7EDFDFFF713FE0120FFF75AFE09
:1059E0000E4804604FF0FF310A480068FFF770FE70
:1059F000502108480068FFF770FE094951F824005B
:105A0000FCF784FB03480068FFF7C8FD70BD000089
:105A1000CCB10000C004002004B20000C404002087
:105A2000E8B1000070B5012122480068FFF759FE77
:105A3000044621461F480068FFF748FE04F0200096
:105A400068B11C480068FFF751FE1B491B48FCF772
:105A5000B7FB20B1202117480068FFF739FE04F09A
:105A6000500030B316E013480068FFF74BFD0546C1
:105A70006EB24FF4807212491248FCF7BFFB48B96E
:105A800011490F4A12688D540D480068401CC0B27D
:105A90000B49086007480068FFF744FD0028E2D181
:105AA00004480068FFF722FE202102480068FFF743
:105AB00014FE70BD4404002034040020380400208B
:105AC0003C040020400400201C1D002070B5012172
:105AD00024480068FFF705FE044621462148006877
